{"address":"0x7a44AA14BD35aec7691A5b2cAAf83ab3dc1Fa195","bytecode":"0x60806040523480156200001157600080fd5b50604051620041ce380380620041ce8339818101604052810190620000379190620002e4565b6040518060400160405280600a81526020017f4e4654437573746f6479000000000000000000000000000000000000000000008152506040518060400160405280600481526020017f4e465443000000000000000000000000000000000000000000000000000000008152508160009081620000b4919062000590565b508060019081620000c6919062000590565b505050620000fb7f9f2df0fed2c77648de5860a4cc508cd0818c85b8b8a1ab4ceeef8d981c8956a6826200010360201b60201c565b505062000677565b60006200011783836200020760201b60201c565b620001fc5760016006600085815260200190815260200160002060000160008473ffffffffffffffffffffffffffffffffffffffff1673ffffffffffffffffffffffffffffffffffffffff16815260200190815260200160002060006101000a81548160ff021916908315150217905550620001986200027260201b60201c565b73ffffffffffffffffffffffffffffffffffffffff168273ffffffffffffffffffffffffffffffffffffffff16847f2f8788117e7eff1d82e926ec794901d17c78024a50270940304540a733656f0d60405160405180910390a46001905062000201565b600090505b92915050565b60006006600084815260200190815260200160002060000160008373ffffffffffffffffffffffffffffffffffffffff1673ffffffffffffffffffffffffffffffffffffffff16815260200190815260200160002060009054906101000a900460ff16905092915050565b600033905090565b600080fd5b600073ffffffffffffffffffffffffffffffffffffffff82169050919050565b6000620002ac826200027f565b9050919050565b620002be816200029f565b8114620002ca57600080fd5b50565b600081519050620002de81620002b3565b92915050565b600060208284031215620002fd57620002fc6200027a565b5b60006200030d84828501620002cd565b91505092915050565b600081519050919050565b7f4e487b7100000000000000000000000000000000000000000000000000000000600052604160045260246000fd5b7f4e487b7100000000000000000000000000000000000000000000000000000000600052602260045260246000fd5b600060028204905060018216806200039857607f821691505b602082108103620003ae57620003ad62000350565b5b50919050565b60008190508160005260206000209050919050565b60006020601f8301049050919050565b600082821b905092915050565b600060088302620004187fffffffffffffffffffffffffffffffffffffffffffffffffffffffffffffffff82620003d9565b620004248683620003d9565b95508019841693508086168417925050509392505050565b6000819050919050565b6000819050919050565b6000620004716200046b62000465846200043c565b62000446565b6200043c565b9050919050565b6000819050919050565b6200048d8362000450565b620004a56200049c8262000478565b848454620003e6565b825550505050565b600090565b620004bc620004ad565b620004c981848462000482565b505050565b5b81811015620004f157620004e5600082620004b2565b600181019050620004cf565b5050565b601f82111562000540576200050a81620003b4565b6200051584620003c9565b8101602085101562000525578190505b6200053d6200053485620003c9565b830182620004ce565b50505b505050565b600082821c905092915050565b6000620005656000198460080262000545565b1980831691505092915050565b600062000580838362000552565b9150826002028217905092915050565b6200059b8262000316565b67ffffffffffffffff811115620005b757620005b662000321565b5b620005c382546200037f565b620005d0828285620004f5565b600060209050601f831160018114620006085760008415620005f3578287015190505b620005ff858262000572565b8655506200066f565b601f1984166200061886620003b4565b60005b8281101562000642578489015182556001820191506020850194506020810190506200061b565b868310156200066257848901516200065e601f89168262000552565b8355505b6001600288020188555050505b505050505050565b613b4780620006876000396000f3fe608060405234801561001057600080fd5b50600436106101425760003560e01c806370a08231116100b8578063a22cb4651161007c578063a22cb46514610385578063b88d4fde146103a1578063c87b56dd146103bd578063d5391393146103ed578063d547741f1461040b578063e985e9c51461042757610142565b806370a08231146102cd57806388550cb7146102fd57806391d148541461031957806395d89b4114610349578063a217fddf1461036757610142565b8063248a9ca31161010a578063248a9ca3146101fd5780632f2ff15d1461022d57806336568abe1461024957806342842e0e146102655780635a8d63c5146102815780636352211e1461029d57610142565b806301ffc9a71461014757806306fdde0314610177578063081812fc14610195578063095ea7b3146101c557806323b872dd146101e1575b600080fd5b610161600480360381019061015c9190612503565b610457565b60405161016e919061254b565b60405180910390f35b61017f610479565b60405161018c91906125f6565b60405180910390f35b6101af60048036038101906101aa919061264e565b61050b565b6040516101bc91906126bc565b60405180910390f35b6101df60048036038101906101da9190612703565b610527565b005b6101fb60048036038101906101f69190612743565b61053d565b005b610217600480360381019061021291906127cc565b61063f565b6040516102249190612808565b60405180910390f35b61024760048036038101906102429190612823565b61065f565b005b610263600480360381019061025e9190612823565b610681565b005b61027f600480360381019061027a9190612743565b6106fc565b005b61029b60048036038101906102969190612998565b61071c565b005b6102b760048036038101906102b2919061264e565b610a36565b6040516102c491906126bc565b60405180910390f35b6102e760048036038101906102e291906129f4565b610a48565b6040516102f49190612a30565b60405180910390f35b61031760048036038101906103129190612a4b565b610b02565b005b610333600480360381019061032e9190612823565b610e57565b604051610340919061254b565b60405180910390f35b610351610ec2565b60405161035e91906125f6565b60405180910390f35b61036f610f54565b60405161037c9190612808565b60405180910390f35b61039f600480360381019061039a9190612b89565b610f5b565b005b6103bb60048036038101906103b69190612c6a565b610f71565b005b6103d760048036038101906103d2919061264e565b610f8e565b6040516103e491906125f6565b60405180910390f35b6103f5611245565b6040516104029190612808565b60405180910390f35b61042560048036038101906104209190612823565b611269565b005b610441600480360381019061043c9190612ced565b61128b565b60405161044e919061254b565b60405180910390f35b60006104628261131f565b80610472575061047182611401565b5b9050919050565b60606000805461048890612d5c565b80601f01602080910402602001604051908101604052809291908181526020018280546104b490612d5c565b80156105015780601f106104d657610100808354040283529160200191610501565b820191906000526020600020905b8154815290600101906020018083116104e457829003601f168201915b5050505050905090565b60006105168261147b565b5061052082611503565b9050919050565b6105398282610534611540565b611548565b5050565b600073ffffffffffffffffffffffffffffffffffffffff168273ffffffffffffffffffffffffffffffffffffffff16036105af5760006040517f64a0ae920000000000000000000000000000000000000000000000000000000081526004016105a691906126bc565b60405180910390fd5b60006105c383836105be611540565b61155a565b90508373ffffffffffffffffffffffffffffffffffffffff168173ffffffffffffffffffffffffffffffffffffffff1614610639578382826040517f64283d7b00000000000000000000000000000000000000000000000000000000815260040161063093929190612d8d565b60405180910390fd5b50505050565b600060066000838152602001908152602001600020600101549050919050565b6106688261063f565b61067181611774565b61067b8383611788565b50505050565b610689611540565b73ffffffffffffffffffffffffffffffffffffffff168173ffffffffffffffffffffffffffffffffffffffff16146106ed576040517f6697b23200000000000000000000000000000000000000000000000000000000815260040160405180910390fd5b6106f7828261187a565b505050565b61071783838360405180602001604052806000815250610f71565b505050565b6107467f9f2df0fed2c77648de5860a4cc508cd0818c85b8b8a1ab4ceeef8d981c8956a633610e57565b61078757336040517f5fb5729e00000000000000000000000000000000000000000000000000000000815260040161077e91906126bc565b60405180910390fd5b60006007836040516107999190612e00565b908152602001604051809103902080549050116107eb576040517f08c379a00000000000000000000000000000000000000000000000000000000081526004016107e290612e63565b60405180910390fd5b60005b6007836040516107fe9190612e00565b908152602001604051809103902080549050811015610a075760006007846040516108299190612e00565b9081526020016040518091039020828154811061084957610848612e83565b5b9060005260206000200154905060006008600083815260200190815260200160002060000160009054906101000a900473ffffffffffffffffffffffffffffffffffffffff1690508073ffffffffffffffffffffffffffffffffffffffff166323b872dd3086856040518463ffffffff1660e01b81526004016108ce93929190612eb2565b600060405180830381600087803b1580156108e857600080fd5b505af11580156108fc573d6000803e3d6000fd5b505050508373ffffffffffffffffffffffffffffffffffffffff1682866040516109269190612e00565b60405180910390207f5b5b591a9e4756bf2d10ba55038cbf2a80e51d9cb706c542ca6fd88e0762383b6008600087815260200190815260200160002060000160009054906101000a900473ffffffffffffffffffffffffffffffffffffffff166008600088815260200190815260200160002060010160086000898152602001908152602001600020600201600860008a815260200190815260200160002060030154600860008b81526020019081526020016000206004016040516109f0959493929190612f82565b60405180910390a4505080806001019150506107ee565b50600782604051610a189190612e00565b90815260200160405180910390206000610a329190612459565b5050565b6000610a418261147b565b9050919050565b60008073ffffffffffffffffffffffffffffffffffffffff168273ffffffffffffffffffffffffffffffffffffffff1603610abb5760006040517f89c62b64000000000000000000000000000000000000000000000000000000008152600401610ab291906126bc565b60405180910390fd5b600360008373ffffffffffffffffffffffffffffffffffffffff1673ffffffffffffffffffffffffffffffffffffffff168152602001908152602001600020549050919050565b6000859050610b317f9f2df0fed2c77648de5860a4cc508cd0818c85b8b8a1ab4ceeef8d981c8956a633610e57565b610b7257336040517f5fb5729e000000000000000000000000000000000000000000000000000000008152600401610b6991906126bc565b60405180910390fd5b3073ffffffffffffffffffffffffffffffffffffffff168173ffffffffffffffffffffffffffffffffffffffff1663081812fc896040518263ffffffff1660e01b8152600401610bc29190612a30565b602060405180830381865afa158015610bdf573d6000803e3d6000fd5b505050506040513d601f19601f82011682018060405250810190610c039190612fff565b73ffffffffffffffffffffffffffffffffffffffff1614610c59576040517f08c379a0000000000000000000000000000000000000000000000000000000008152600401610c509061309e565b60405180910390fd5b8073ffffffffffffffffffffffffffffffffffffffff166323b872dd33308a6040518463ffffffff1660e01b8152600401610c9693929190612eb2565b600060405180830381600087803b158015610cb057600080fd5b505af1158015610cc4573d6000803e3d6000fd5b50505050600788604051610cd89190612e00565b90815260200160405180910390208790806001815401808255809150506001900390600052602060002001600090919091909150556040518060a001604052808773ffffffffffffffffffffffffffffffffffffffff168152602001868152602001858152602001848152602001838152506008600089815260200190815260200160002060008201518160000160006101000a81548173ffffffffffffffffffffffffffffffffffffffff021916908373ffffffffffffffffffffffffffffffffffffffff1602179055506020820151816001019081610db99190613255565b506040820151816002019081610dcf9190613255565b50606082015181600301556080820151816004019081610def9190613255565b509050508573ffffffffffffffffffffffffffffffffffffffff168789604051610e199190612e00565b60405180910390207f9ed38391287dcf45d76aa8cca4a7eb4492feb60a9351e191cb60af502af830d060405160405180910390a45050505050505050565b60006006600084815260200190815260200160002060000160008373ffffffffffffffffffffffffffffffffffffffff1673ffffffffffffffffffffffffffffffffffffffff16815260200190815260200160002060009054906101000a900460ff16905092915050565b606060018054610ed190612d5c565b80601f0160208091040260200160405190810160405280929190818152602001828054610efd90612d5c565b8015610f4a5780601f10610f1f57610100808354040283529160200191610f4a565b820191906000526020600020905b815481529060010190602001808311610f2d57829003601f168201915b5050505050905090565b6000801b81565b610f6d610f66611540565b838361196d565b5050565b610f7c84848461053d565b610f8884848484611adc565b50505050565b60606000600860008481526020019081526020016000206040518060a00160405290816000820160009054906101000a900473ffffffffffffffffffffffffffffffffffffffff1673ffffffffffffffffffffffffffffffffffffffff1673ffffffffffffffffffffffffffffffffffffffff16815260200160018201805461101690612d5c565b80601f016020809104026020016040519081016040528092919081815260200182805461104290612d5c565b801561108f5780601f106110645761010080835404028352916020019161108f565b820191906000526020600020905b81548152906001019060200180831161107257829003601f168201915b505050505081526020016002820180546110a890612d5c565b80601f01602080910402602001604051908101604052809291908181526020018280546110d490612d5c565b80156111215780601f106110f657610100808354040283529160200191611121565b820191906000526020600020905b81548152906001019060200180831161110457829003601f168201915b505050505081526020016003820154815260200160048201805461114490612d5c565b80601f016020809104026020016040519081016040528092919081815260200182805461117090612d5c565b80156111bd5780601f10611192576101008083540402835291602001916111bd565b820191906000526020600020905b8154815290600101906020018083116111a057829003601f168201915b5050505050815250509050600061121a6111d685611c93565b836020015184604001516111ed8660600151611c93565b866080015160405160200161120695949392919061374f565b604051602081830303815290604052611d61565b90508060405160200161122d9190613875565b60405160208183030381529060405292505050919050565b7f9f2df0fed2c77648de5860a4cc508cd0818c85b8b8a1ab4ceeef8d981c8956a681565b6112728261063f565b61127b81611774565b611285838361187a565b50505050565b6000600560008473ffffffffffffffffffffffffffffffffffffffff1673ffffffffffffffffffffffffffffffffffffffff16815260200190815260200160002060008373ffffffffffffffffffffffffffffffffffffffff1673ffffffffffffffffffffffffffffffffffffffff16815260200190815260200160002060009054906101000a900460ff16905092915050565b60007f80ac58cd000000000000000000000000000000000000000000000000000000007bffffffffffffffffffffffffffffffffffffffffffffffffffffffff1916827bffffffffffffffffffffffffffffffffffffffffffffffffffffffff191614806113ea57507f5b5e139f000000000000000000000000000000000000000000000000000000007bffffffffffffffffffffffffffffffffffffffffffffffffffffffff1916827bffffffffffffffffffffffffffffffffffffffffffffffffffffffff1916145b806113fa57506113f982611ec4565b5b9050919050565b60007f7965db0b000000000000000000000000000000000000000000000000000000007bffffffffffffffffffffffffffffffffffffffffffffffffffffffff1916827bffffffffffffffffffffffffffffffffffffffffffffffffffffffff1916148061147457506114738261131f565b5b9050919050565b60008061148783611f2e565b9050600073ffffffffffffffffffffffffffffffffffffffff168173ffffffffffffffffffffffffffffffffffffffff16036114fa57826040517f7e2732890000000000000000000000000000000000000000000000000000000081526004016114f19190612a30565b60405180910390fd5b80915050919050565b60006004600083815260200190815260200160002060009054906101000a900473ffffffffffffffffffffffffffffffffffffffff169050919050565b600033905090565b6115558383836001611f6b565b505050565b60008061156684611f2e565b9050600073ffffffffffffffffffffffffffffffffffffffff168373ffffffffffffffffffffffffffffffffffffffff16146115a8576115a7818486612130565b5b600073ffffffffffffffffffffffffffffffffffffffff168173ffffffffffffffffffffffffffffffffffffffff1614611639576115ea600085600080611f6b565b6001600360008373ffffffffffffffffffffffffffffffffffffffff1673ffffffffffffffffffffffffffffffffffffffff168152602001908152602001600020600082825403925050819055505b600073ffffffffffffffffffffffffffffffffffffffff168573ffffffffffffffffffffffffffffffffffffffff16146116bc576001600360008773ffffffffffffffffffffffffffffffffffffffff1673ffffffffffffffffffffffffffffffffffffffff168152602001908152602001600020600082825401925050819055505b846002600086815260200190815260200160002060006101000a81548173ffffffffffffffffffffffffffffffffffffffff021916908373ffffffffffffffffffffffffffffffffffffffff160217905550838573ffffffffffffffffffffffffffffffffffffffff168273ffffffffffffffffffffffffffffffffffffffff167fddf252ad1be2c89b69c2b068fc378daa952ba7f163c4a11628f55a4df523b3ef60405160405180910390a4809150509392505050565b61178581611780611540565b6121f4565b50565b60006117948383610e57565b61186f5760016006600085815260200190815260200160002060000160008473ffffffffffffffffffffffffffffffffffffffff1673ffffffffffffffffffffffffffffffffffffffff16815260200190815260200160002060006101000a81548160ff02191690831515021790555061180c611540565b73ffffffffffffffffffffffffffffffffffffffff168273ffffffffffffffffffffffffffffffffffffffff16847f2f8788117e7eff1d82e926ec794901d17c78024a50270940304540a733656f0d60405160405180910390a460019050611874565b600090505b92915050565b60006118868383610e57565b156119625760006006600085815260200190815260200160002060000160008473ffffffffffffffffffffffffffffffffffffffff1673ffffffffffffffffffffffffffffffffffffffff16815260200190815260200160002060006101000a81548160ff0219169083151502179055506118ff611540565b73ffffffffffffffffffffffffffffffffffffffff168273ffffffffffffffffffffffffffffffffffffffff16847ff6391f5c32d9c69d2a47ea670b442974b53935d1edc7fd64eb21e047a839171b60405160405180910390a460019050611967565b600090505b92915050565b600073ffffffffffffffffffffffffffffffffffffffff168273ffffffffffffffffffffffffffffffffffffffff16036119de57816040517f5b08ba180000000000000000000000000000000000000000000000000000000081526004016119d591906126bc565b60405180910390fd5b80600560008573ffffffffffffffffffffffffffffffffffffffff1673ffffffffffffffffffffffffffffffffffffffff16815260200190815260200160002060008473ffffffffffffffffffffffffffffffffffffffff1673ffffffffffffffffffffffffffffffffffffffff16815260200190815260200160002060006101000a81548160ff0219169083151502179055508173ffffffffffffffffffffffffffffffffffffffff168373ffffffffffffffffffffffffffffffffffffffff167f17307eab39ab6107e8899845ad3d59bd9653f200f220920489ca2b5937696c3183604051611acf919061254b565b60405180910390a3505050565b60008373ffffffffffffffffffffffffffffffffffffffff163b1115611c8d578273ffffffffffffffffffffffffffffffffffffffff1663150b7a02611b20611540565b8685856040518563ffffffff1660e01b8152600401611b4294939291906138ec565b6020604051808303816000875af1925050508015611b7e57506040513d601f19601f82011682018060405250810190611b7b919061394d565b60015b611c02573d8060008114611bae576040519150601f19603f3d011682016040523d82523d6000602084013e611bb3565b606091505b506000815103611bfa57836040517f64a0ae92000000000000000000000000000000000000000000000000000000008152600401611bf191906126bc565b60405180910390fd5b805181602001fd5b63150b7a0260e01b7bffffffffffffffffffffffffffffffffffffffffffffffffffffffff1916817bffffffffffffffffffffffffffffffffffffffffffffffffffffffff191614611c8b57836040517f64a0ae92000000000000000000000000000000000000000000000000000000008152600401611c8291906126bc565b60405180910390fd5b505b50505050565b606060006001611ca284612245565b01905060008167ffffffffffffffff811115611cc157611cc061286d565b5b6040519080825280601f01601f191660200182016040528015611cf35781602001600182028036833780820191505090505b509050600082602001820190505b600115611d56578080600190039150507f3031323334353637383961626364656600000000000000000000000000000000600a86061a8153600a8581611d4a57611d4961397a565b5b04945060008503611d01575b819350505050919050565b60606000825103611d8357604051806020016040528060008152509050611ebf565b6000604051806060016040528060408152602001613ad26040913990506000600360028551611db291906139d8565b611dbc9190613a0c565b6004611dc89190613a3d565b67ffffffffffffffff811115611de157611de061286d565b5b6040519080825280601f01601f191660200182016040528015611e135781602001600182028036833780820191505090505b509050600182016020820185865187015b80821015611e7f576003820191508151603f8160121c168501518453600184019350603f81600c1c168501518453600184019350603f8160061c168501518453600184019350603f8116850151845360018401935050611e24565b5050600386510660018114611e9b5760028114611eae57611eb6565b603d6001830353603d6002830353611eb6565b603d60018303535b50505080925050505b919050565b60007f01ffc9a7000000000000000000000000000000000000000000000000000000007bffffffffffffffffffffffffffffffffffffffffffffffffffffffff1916827bffffffffffffffffffffffffffffffffffffffffffffffffffffffff1916149050919050565b60006002600083815260200190815260200160002060009054906101000a900473ffffffffffffffffffffffffffffffffffffffff169050919050565b8080611fa45750600073ffffffffffffffffffffffffffffffffffffffff168273ffffffffffffffffffffffffffffffffffffffff1614155b156120d8576000611fb48461147b565b9050600073ffffffffffffffffffffffffffffffffffffffff168373ffffffffffffffffffffffffffffffffffffffff161415801561201f57508273ffffffffffffffffffffffffffffffffffffffff168173ffffffffffffffffffffffffffffffffffffffff1614155b80156120325750612030818461128b565b155b1561207457826040517fa9fbf51f00000000000000000000000000000000000000000000000000000000815260040161206b91906126bc565b60405180910390fd5b81156120d657838573ffffffffffffffffffffffffffffffffffffffff168273ffffffffffffffffffffffffffffffffffffffff167f8c5be1e5ebec7d5bd14f71427d1e84f3dd0314c0f7b2291e5b200ac8c7c3b92560405160405180910390a45b505b836004600085815260200190815260200160002060006101000a81548173ffffffffffffffffffffffffffffffffffffffff021916908373ffffffffffffffffffffffffffffffffffffffff16021790555050505050565b61213b838383612398565b6121ef57600073ffffffffffffffffffffffffffffffffffffffff168373ffffffffffffffffffffffffffffffffffffffff16036121b057806040517f7e2732890000000000000000000000000000000000000000000000000000000081526004016121a79190612a30565b60405180910390fd5b81816040517f177e802f0000000000000000000000000000000000000000000000000000000081526004016121e6929190613a7f565b60405180910390fd5b505050565b6121fe8282610e57565b6122415780826040517fe2517d3f000000000000000000000000000000000000000000000000000000008152600401612238929190613aa8565b60405180910390fd5b5050565b600080600090507a184f03e93ff9f4daa797ed6e38ed64bf6a1f01000000000000000083106122a3577a184f03e93ff9f4daa797ed6e38ed64bf6a1f01000000000000000083816122995761229861397a565b5b0492506040810190505b6d04ee2d6d415b85acef810000000083106122e0576d04ee2d6d415b85acef810000000083816122d6576122d561397a565b5b0492506020810190505b662386f26fc10000831061230f57662386f26fc1000083816123055761230461397a565b5b0492506010810190505b6305f5e1008310612338576305f5e100838161232e5761232d61397a565b5b0492506008810190505b612710831061235d5761271083816123535761235261397a565b5b0492506004810190505b6064831061238057606483816123765761237561397a565b5b0492506002810190505b600a831061238f576001810190505b80915050919050565b60008073ffffffffffffffffffffffffffffffffffffffff168373ffffffffffffffffffffffffffffffffffffffff161415801561245057508273ffffffffffffffffffffffffffffffffffffffff168473ffffffffffffffffffffffffffffffffffffffff1614806124115750612410848461128b565b5b8061244f57508273ffffffffffffffffffffffffffffffffffffffff1661243783611503565b73ffffffffffffffffffffffffffffffffffffffff16145b5b90509392505050565b5080546000825590600052602060002090810190612477919061247a565b50565b5b8082111561249357600081600090555060010161247b565b5090565b6000604051905090565b600080fd5b600080fd5b60007fffffffff0000000000000000000000000000000000000000000000000000000082169050919050565b6124e0816124ab565b81146124eb57600080fd5b50565b6000813590506124fd816124d7565b92915050565b600060208284031215612519576125186124a1565b5b6000612527848285016124ee565b91505092915050565b60008115159050919050565b61254581612530565b82525050565b6000602082019050612560600083018461253c565b92915050565b600081519050919050565b600082825260208201905092915050565b60005b838110156125a0578082015181840152602081019050612585565b60008484015250505050565b6000601f19601f8301169050919050565b60006125c882612566565b6125d28185612571565b93506125e2818560208601612582565b6125eb816125ac565b840191505092915050565b6000602082019050818103600083015261261081846125bd565b905092915050565b6000819050919050565b61262b81612618565b811461263657600080fd5b50565b60008135905061264881612622565b92915050565b600060208284031215612664576126636124a1565b5b600061267284828501612639565b91505092915050565b600073ffffffffffffffffffffffffffffffffffffffff82169050919050565b60006126a68261267b565b9050919050565b6126b68161269b565b82525050565b60006020820190506126d160008301846126ad565b92915050565b6126e08161269b565b81146126eb57600080fd5b50565b6000813590506126fd816126d7565b92915050565b6000806040838503121561271a576127196124a1565b5b6000612728858286016126ee565b925050602061273985828601612639565b9150509250929050565b60008060006060848603121561275c5761275b6124a1565b5b600061276a868287016126ee565b935050602061277b868287016126ee565b925050604061278c86828701612639565b9150509250925092565b6000819050919050565b6127a981612796565b81146127b457600080fd5b50565b6000813590506127c6816127a0565b92915050565b6000602082840312156127e2576127e16124a1565b5b60006127f0848285016127b7565b91505092915050565b61280281612796565b82525050565b600060208201905061281d60008301846127f9565b92915050565b6000806040838503121561283a576128396124a1565b5b6000612848858286016127b7565b9250506020612859858286016126ee565b9150509250929050565b600080fd5b600080fd5b7f4e487b7100000000000000000000000000000000000000000000000000000000600052604160045260246000fd5b6128a5826125ac565b810181811067ffffffffffffffff821117156128c4576128c361286d565b5b80604052505050565b60006128d7612497565b90506128e3828261289c565b919050565b600067ffffffffffffffff8211156129035761290261286d565b5b61290c826125ac565b9050602081019050919050565b82818337600083830152505050565b600061293b612936846128e8565b6128cd565b90508281526020810184848401111561295757612956612868565b5b612962848285612919565b509392505050565b600082601f83011261297f5761297e612863565b5b813561298f848260208601612928565b91505092915050565b600080604083850312156129af576129ae6124a1565b5b600083013567ffffffffffffffff8111156129cd576129cc6124a6565b5b6129d98582860161296a565b92505060206129ea858286016126ee565b9150509250929050565b600060208284031215612a0a57612a096124a1565b5b6000612a18848285016126ee565b91505092915050565b612a2a81612618565b82525050565b6000602082019050612a456000830184612a21565b92915050565b600080600080600080600060e0888a031215612a6a57612a696124a1565b5b600088013567ffffffffffffffff811115612a8857612a876124a6565b5b612a948a828b0161296a565b9750506020612aa58a828b01612639565b9650506040612ab68a828b016126ee565b955050606088013567ffffffffffffffff811115612ad757612ad66124a6565b5b612ae38a828b0161296a565b945050608088013567ffffffffffffffff811115612b0457612b036124a6565b5b612b108a828b0161296a565b93505060a0612b218a828b01612639565b92505060c088013567ffffffffffffffff811115612b4257612b416124a6565b5b612b4e8a828b0161296a565b91505092959891949750929550565b612b6681612530565b8114612b7157600080fd5b50565b600081359050612b8381612b5d565b92915050565b60008060408385031215612ba057612b9f6124a1565b5b6000612bae858286016126ee565b9250506020612bbf85828601612b74565b9150509250929050565b600067ffffffffffffffff821115612be457612be361286d565b5b612bed826125ac565b9050602081019050919050565b6000612c0d612c0884612bc9565b6128cd565b905082815260208101848484011115612c2957612c28612868565b5b612c34848285612919565b509392505050565b600082601f830112612c5157612c50612863565b5b8135612c61848260208601612bfa565b91505092915050565b60008060008060808587031215612c8457612c836124a1565b5b6000612c92878288016126ee565b9450506020612ca3878288016126ee565b9350506040612cb487828801612639565b925050606085013567ffffffffffffffff811115612cd557612cd46124a6565b5b612ce187828801612c3c565b91505092959194509250565b60008060408385031215612d0457612d036124a1565b5b6000612d12858286016126ee565b9250506020612d23858286016126ee565b9150509250929050565b7f4e487b7100000000000000000000000000000000000000000000000000000000600052602260045260246000fd5b60006002820490506001821680612d7457607f821691505b602082108103612d8757612d86612d2d565b5b50919050565b6000606082019050612da260008301866126ad565b612daf6020830185612a21565b612dbc60408301846126ad565b949350505050565b600081905092915050565b6000612dda82612566565b612de48185612dc4565b9350612df4818560208601612582565b80840191505092915050565b6000612e0c8284612dcf565b915081905092915050565b7f5573657220686173206e6f204e46547320746f20636c61696d00000000000000600082015250565b6000612e4d601983612571565b9150612e5882612e17565b602082019050919050565b60006020820190508181036000830152612e7c81612e40565b9050919050565b7f4e487b7100000000000000000000000000000000000000000000000000000000600052603260045260246000fd5b6000606082019050612ec760008301866126ad565b612ed460208301856126ad565b612ee16040830184612a21565b949350505050565b60008190508160005260206000209050919050565b60008154612f0b81612d5c565b612f158186612571565b94506001821660008114612f305760018114612f4657612f79565b60ff198316865281151560200286019350612f79565b612f4f85612ee9565b60005b83811015612f7157815481890152600182019150602081019050612f52565b808801955050505b50505092915050565b600060a082019050612f9760008301886126ad565b8181036020830152612fa98187612efe565b90508181036040830152612fbd8186612efe565b9050612fcc6060830185612a21565b8181036080830152612fde8184612efe565b90509695505050505050565b600081519050612ff9816126d7565b92915050565b600060208284031215613015576130146124a1565b5b600061302384828501612fea565b91505092915050565b7f4e4654206d75737420626520617070726f76656420666f72207472616e73666560008201527f7200000000000000000000000000000000000000000000000000000000000000602082015250565b6000613088602183612571565b91506130938261302c565b604082019050919050565b600060208201905081810360008301526130b78161307b565b9050919050565b60006020601f8301049050919050565b600082821b905092915050565b60006008830261310b7fffffffffffffffffffffffffffffffffffffffffffffffffffffffffffffffff826130ce565b61311586836130ce565b95508019841693508086168417925050509392505050565b6000819050919050565b600061315261314d61314884612618565b61312d565b612618565b9050919050565b6000819050919050565b61316c83613137565b61318061317882613159565b8484546130db565b825550505050565b600090565b613195613188565b6131a0818484613163565b505050565b5b818110156131c4576131b960008261318d565b6001810190506131a6565b5050565b601f821115613209576131da81612ee9565b6131e3846130be565b810160208510156131f2578190505b6132066131fe856130be565b8301826131a5565b50505b505050565b600082821c905092915050565b600061322c6000198460080261320e565b1980831691505092915050565b6000613245838361321b565b9150826002028217905092915050565b61325e82612566565b67ffffffffffffffff8111156132775761327661286d565b5b6132818254612d5c565b61328c8282856131c8565b600060209050601f8311600181146132bf57600084156132ad578287015190505b6132b78582613239565b86555061331f565b601f1984166132cd86612ee9565b60005b828110156132f5578489015182556001820191506020850194506020810190506132d0565b86831015613312578489015161330e601f89168261321b565b8355505b6001600288020188555050505b505050505050565b7f7b226e616d65223a20224e465420230000000000000000000000000000000000600082015250565b600061335d600f83612dc4565b915061336882613327565b600f82019050919050565b7f222c000000000000000000000000000000000000000000000000000000000000600082015250565b60006133a9600283612dc4565b91506133b482613373565b600282019050919050565b7f226465736372697074696f6e223a2022416e204e46542066726f6d204e46544360008201527f7573746f647920636f6e74726163742e222c0000000000000000000000000000602082015250565b600061341b603283612dc4565b9150613426826133bf565b603282019050919050565b7f2261747472696275746573223a205b0000000000000000000000000000000000600082015250565b6000613467600f83612dc4565b915061347282613431565b600f82019050919050565b7f7b2274726169745f74797065223a2022506f736974696f6e222c202276616c7560008201527f65223a2022000000000000000000000000000000000000000000000000000000602082015250565b60006134d9602583612dc4565b91506134e48261347d565b602582019050919050565b7f227d2c0000000000000000000000000000000000000000000000000000000000600082015250565b6000613525600383612dc4565b9150613530826134ef565b600382019050919050565b7f7b2274726169745f74797065223a20225465616d222c202276616c7565223a2060008201527f2200000000000000000000000000000000000000000000000000000000000000602082015250565b6000613597602183612dc4565b91506135a28261353b565b602182019050919050565b7f7b2274726169745f74797065223a202253636f7265222c202276616c7565223a60008201527f2000000000000000000000000000000000000000000000000000000000000000602082015250565b6000613609602183612dc4565b9150613614826135ad565b602182019050919050565b7f7d00000000000000000000000000000000000000000000000000000000000000600082015250565b6000613655600183612dc4565b91506136608261361f565b600182019050919050565b7f5d2c000000000000000000000000000000000000000000000000000000000000600082015250565b60006136a1600283612dc4565b91506136ac8261366b565b600282019050919050565b7f22696d616765223a202200000000000000000000000000000000000000000000600082015250565b60006136ed600a83612dc4565b91506136f8826136b7565b600a82019050919050565b7f227d000000000000000000000000000000000000000000000000000000000000600082015250565b6000613739600283612dc4565b915061374482613703565b600282019050919050565b600061375a82613350565b91506137668288612dcf565b91506137718261339c565b915061377c8261340e565b91506137878261345a565b9150613792826134cc565b915061379e8287612dcf565b91506137a982613518565b91506137b48261358a565b91506137c08286612dcf565b91506137cb82613518565b91506137d6826135fc565b91506137e28285612dcf565b91506137ed82613648565b91506137f882613694565b9150613803826136e0565b915061380f8284612dcf565b915061381a8261372c565b91508190509695505050505050565b7f646174613a6170706c69636174696f6e2f6a736f6e3b6261736536342c000000600082015250565b600061385f601d83612dc4565b915061386a82613829565b601d82019050919050565b600061388082613852565b915061388c8284612dcf565b915081905092915050565b600081519050919050565b600082825260208201905092915050565b60006138be82613897565b6138c881856138a2565b93506138d8818560208601612582565b6138e1816125ac565b840191505092915050565b600060808201905061390160008301876126ad565b61390e60208301866126ad565b61391b6040830185612a21565b818103606083015261392d81846138b3565b905095945050505050565b600081519050613947816124d7565b92915050565b600060208284031215613963576139626124a1565b5b600061397184828501613938565b91505092915050565b7f4e487b7100000000000000000000000000000000000000000000000000000000600052601260045260246000fd5b7f4e487b7100000000000000000000000000000000000000000000000000000000600052601160045260246000fd5b60006139e382612618565b91506139ee83612618565b9250828201905080821115613a0657613a056139a9565b5b92915050565b6000613a1782612618565b9150613a2283612618565b925082613a3257613a3161397a565b5b828204905092915050565b6000613a4882612618565b9150613a5383612618565b9250828202613a6181612618565b91508282048414831517613a7857613a776139a9565b5b5092915050565b6000604082019050613a9460008301856126ad565b613aa16020830184612a21565b9392505050565b6000604082019050613abd60008301856126ad565b613aca60208301846127f9565b939250505056fe4142434445464748494a4b4c4d4e4f505152535455565758595a6162636465666768696a6b6c6d6e6f707172737475767778797a303132333435363738392b2fa26469706673582212204435cd608f2ed2b0ef415dea86c6de08780a0d5307aad3cd77b9f0a9a162414c64736f6c63430008180033","abi":[{"inputs":[{"internalType":"address","name":"minter","type":"address"}],"stateMutability":"nonpayable","type":"constructor"},{"inputs":[],"name":"AccessControlBadConfirmation","type":"error"},{"inputs":[{"internalType":"address","name":"account","type":"address"},{"internalType":"bytes32","name":"neededRole","type":"bytes32"}],"name":"AccessControlUnauthorizedAccount","type":"error"},{"inputs":[{"internalType":"address","name":"caller","type":"address"}],"name":"CallerNotMinter","type":"error"},{"inputs":[{"internalType":"address","name":"sender","type":"address"},{"internalType":"uint256","name":"tokenId","type":"uint256"},{"internalType":"address","name":"owner","type":"address"}],"name":"ERC721IncorrectOwner","type":"error"},{"inputs":[{"internalType":"address","name":"operator","type":"address"},{"internalType":"uint256","name":"tokenId","type":"uint256"}],"name":"ERC721InsufficientApproval","type":"error"},{"inputs":[{"internalType":"address","name":"approver","type":"address"}],"name":"ERC721InvalidApprover","type":"error"},{"inputs":[{"internalType":"address","name":"operator","type":"address"}],"name":"ERC721InvalidOperator","type":"error"},{"inputs":[{"internalType":"address","name":"owner","type":"address"}],"name":"ERC721InvalidOwner","type":"error"},{"inputs":[{"internalType":"address","name":"receiver","type":"address"}],"name":"ERC721InvalidReceiver","type":"error"},{"inputs":[{"internalType":"address","name":"sender","type":"address"}],"name":"ERC721InvalidSender","type":"error"},{"inputs":[{"internalType":"uint256","name":"tokenId","type":"uint256"}],"name":"ERC721NonexistentToken","type":"error"},{"anonymous":false,"inputs":[{"indexed":true,"internalType":"address","name":"owner","type":"address"},{"indexed":true,"internalType":"address","name":"approved","type":"address"},{"indexed":true,"internalType":"uint256","name":"tokenId","type":"uint256"}],"name":"Approval","type":"event"},{"anonymous":false,"inputs":[{"indexed":true,"internalType":"address","name":"owner","type":"address"},{"indexed":true,"internalType":"address","name":"operator","type":"address"},{"indexed":false,"internalType":"bool","name":"approved","type":"bool"}],"name":"ApprovalForAll","type":"event"},{"anonymous":false,"inputs":[{"indexed":true,"internalType":"string","name":"userId","type":"string"},{"indexed":true,"internalType":"uint256","name":"tokenId","type":"uint256"},{"indexed":false,"internalType":"address","name":"nftContractAddress","type":"address"},{"indexed":true,"internalType":"address","name":"userWallet","type":"address"},{"indexed":false,"internalType":"string","name":"position","type":"string"},{"indexed":false,"internalType":"string","name":"team","type":"string"},{"indexed":false,"internalType":"uint256","name":"score","type":"uint256"},{"indexed":false,"internalType":"string","name":"imageURL","type":"string"}],"name":"NFTClaimed","type":"event"},{"anonymous":false,"inputs":[{"indexed":true,"internalType":"string","name":"userId","type":"string"},{"indexed":true,"internalType":"uint256","name":"tokenId","type":"uint256"},{"indexed":true,"internalType":"address","name":"nftContractAddress","type":"address"}],"name":"NFTDeposited","type":"event"},{"anonymous":false,"inputs":[{"indexed":true,"internalType":"bytes32","name":"role","type":"bytes32"},{"indexed":true,"internalType":"bytes32","name":"previousAdminRole","type":"bytes32"},{"indexed":true,"internalType":"bytes32","name":"newAdminRole","type":"bytes32"}],"name":"RoleAdminChanged","type":"event"},{"anonymous":false,"inputs":[{"indexed":true,"internalType":"bytes32","name":"role","type":"bytes32"},{"indexed":true,"internalType":"address","name":"account","type":"address"},{"indexed":true,"internalType":"address","name":"sender","type":"address"}],"name":"RoleGranted","type":"event"},{"anonymous":false,"inputs":[{"indexed":true,"internalType":"bytes32","name":"role","type":"bytes32"},{"indexed":true,"internalType":"address","name":"account","type":"address"},{"indexed":true,"internalType":"address","name":"sender","type":"address"}],"name":"RoleRevoked","type":"event"},{"anonymous":false,"inputs":[{"indexed":true,"internalType":"address","name":"from","type":"address"},{"indexed":true,"internalType":"address","name":"to","type":"address"},{"indexed":true,"internalType":"uint256","name":"tokenId","type":"uint256"}],"name":"Transfer","type":"event"},{"inputs":[],"name":"DEFAULT_ADMIN_ROLE","outputs":[{"internalType":"bytes32","name":"","type":"bytes32"}],"stateMutability":"view","type":"function"},{"inputs":[],"name":"MINTER_ROLE","outputs":[{"internalType":"bytes32","name":"","type":"bytes32"}],"stateMutability":"view","type":"function"},{"inputs":[{"internalType":"address","name":"to","type":"address"},{"internalType":"uint256","name":"tokenId","type":"uint256"}],"name":"approve","outputs":[],"stateMutability":"nonpayable","type":"function"},{"inputs":[{"internalType":"address","name":"owner","type":"address"}],"name":"balanceOf","outputs":[{"internalType":"uint256","name":"","type":"uint256"}],"stateMutability":"view","type":"function"},{"inputs":[{"internalType":"string","name":"userId","type":"string"},{"internalType":"address","name":"userWallet","type":"address"}],"name":"claimNFT","outputs":[],"stateMutability":"nonpayable","type":"function"},{"inputs":[{"internalType":"string","name":"userId","type":"string"},{"internalType":"uint256","name":"tokenId","type":"uint256"},{"internalType":"address","name":"nftContractAddress","type":"address"},{"internalType":"string","name":"position","type":"string"},{"internalType":"string","name":"team","type":"string"},{"internalType":"uint256","name":"score","type":"uint256"},{"internalType":"string","name":"imageURL","type":"string"}],"name":"depositNFT","outputs":[],"stateMutability":"nonpayable","type":"function"},{"inputs":[{"internalType":"uint256","name":"tokenId","type":"uint256"}],"name":"getApproved","outputs":[{"internalType":"address","name":"","type":"address"}],"stateMutability":"view","type":"function"},{"inputs":[{"internalType":"bytes32","name":"role","type":"bytes32"}],"name":"getRoleAdmin","outputs":[{"internalType":"bytes32","name":"","type":"bytes32"}],"stateMutability":"view","type":"function"},{"inputs":[{"internalType":"bytes32","name":"role","type":"bytes32"},{"internalType":"address","name":"account","type":"address"}],"name":"grantRole","outputs":[],"stateMutability":"nonpayable","type":"function"},{"inputs":[{"internalType":"bytes32","name":"role","type":"bytes32"},{"internalType":"address","name":"account","type":"address"}],"name":"hasRole","outputs":[{"internalType":"bool","name":"","type":"bool"}],"stateMutability":"view","type":"function"},{"inputs":[{"internalType":"address","name":"owner","type":"address"},{"internalType":"address","name":"operator","type":"address"}],"name":"isApprovedForAll","outputs":[{"internalType":"bool","name":"","type":"bool"}],"stateMutability":"view","type":"function"},{"inputs":[],"name":"name","outputs":[{"internalType":"string","name":"","type":"string"}],"stateMutability":"view","type":"function"},{"inputs":[{"internalType":"uint256","name":"tokenId","type":"uint256"}],"name":"ownerOf","outputs":[{"internalType":"address","name":"","type":"address"}],"stateMutability":"view","type":"function"},{"inputs":[{"internalType":"bytes32","name":"role","type":"bytes32"},{"internalType":"address","name":"callerConfirmation","type":"address"}],"name":"renounceRole","outputs":[],"stateMutability":"nonpayable","type":"function"},{"inputs":[{"internalType":"bytes32","name":"role","type":"bytes32"},{"internalType":"address","name":"account","type":"address"}],"name":"revokeRole","outputs":[],"stateMutability":"nonpayable","type":"function"},{"inputs":[{"internalType":"address","name":"from","type":"address"},{"internalType":"address","name":"to","type":"address"},{"internalType":"uint256","name":"tokenId","type":"uint256"}],"name":"safeTransferFrom","outputs":[],"stateMutability":"nonpayable","type":"function"},{"inputs":[{"internalType":"address","name":"from","type":"address"},{"internalType":"address","name":"to","type":"address"},{"internalType":"uint256","name":"tokenId","type":"uint256"},{"internalType":"bytes","name":"data","type":"bytes"}],"name":"safeTransferFrom","outputs":[],"stateMutability":"nonpayable","type":"function"},{"inputs":[{"internalType":"address","name":"operator","type":"address"},{"internalType":"bool","name":"approved","type":"bool"}],"name":"setApprovalForAll","outputs":[],"stateMutability":"nonpayable","type":"function"},{"inputs":[{"internalType":"bytes4","name":"interfaceId","type":"bytes4"}],"name":"supportsInterface","outputs":[{"internalType":"bool","name":"","type":"bool"}],"stateMutability":"view","type":"function"},{"inputs":[],"name":"symbol","outputs":[{"internalType":"string","name":"","type":"string"}],"stateMutability":"view","type":"function"},{"inputs":[{"internalType":"uint256","name":"tokenId","type":"uint256"}],"name":"tokenURI","outputs":[{"internalType":"string","name":"","type":"string"}],"stateMutability":"view","type":"function"},{"inputs":[{"internalType":"address","name":"from","type":"address"},{"internalType":"address","name":"to","type":"address"},{"internalType":"uint256","name":"tokenId","type":"uint256"}],"name":"transferFrom","outputs":[],"stateMutability":"nonpayable","type":"function"}]}